:020000022000DC
:106000000000012079630200616302006363020003
:10601000656302006763020069630200000000001C
:106020000000000000000000000000006B630200A0
:106030006D630200000000006F63020071630200E4
:10604000ED7F02007363020085820200519002001E
:106050006190020073630200098102007363020011
:1060600073630200736302007363020073630200D0
:1060700073630200736302007363020073630200C0
:1060800073630200A56E0200736302007363020073
:10609000416F020073630200B5A702007363020040
:1060A0007363020073630200736302007363020090
:1060B0007363020073630200000000000000000030
:1060C0007363020073630200736302007363020070
:1060D0007363020073630200736302000000000038
:1060E00000000000000000000000000000000000B0
:1060F00000000000000000000000000000000000A0
:10610000000000000000000000000000000000008F
:10611000000000000000000000000000000000007F
:10612000000000000000000000000000000000006F
:10613000000000000000000000000000000000005F
:10614000000000000000000000000000000000004F
:10615000000000000000000000000000000000003F
:10616000000000000000000000000000000000002F
:10617000000000000000000000000000000000001F
:10618000000000000000000000000000000000000F
:1061900000000000000000000000000000000000FF
:1061A00000000000000000000000000000000000EF
:1061B00000000000000000000000000000000000DF
:1061C00000000000000000000000000000000000CF
:1061D00000000000000000000000000000000000BF
:1061E00000000000000000000000000000000000AF
:1061F000000000000000000000000000000000009F
:10620000364937480A1A02D0072291438D4635494C
:1062100035480A1A06D00722914381F309880222E1
:1062200082F3148831483249324A00F045F8324846
:106230003249334A00F040F832483349334A00F0DB
:106240003BF833483349344A00F036F83348344990
:10625000344A00F031F834483449354A00F02CF81B
:1062600034483549354A00F027F835483549002289
:1062700000F02DF834483549002200F028F8344861
:106280003449091A082903DB002202600430016046
:10629000314A90471F482049884205D0026804309F
:1062A00003B4904703BCF7E700208646EC46002085
:1062B00000212A4A9047FEE7884207D0521A05D0AB
:1062C000037801300B700131013AF9D170478842EF
:1062D00002D002700130FAE7704700000000012090
:1062E00000E00020000001200000012068C602003C
:1062F000701D002090200020D8630200D8630200A7
:106300009EB5020068C60200701D0020701D0020AE
:10631000ACB60200ACB60200ACB60200ACB60200ED
:10632000ACB60200ACB60200ACB60200ACB60200DD
:1063300068C6020088C9020090200020902000203A
:1063400090200020D22E0020D42E0020D42E002019
:10635000D42E0020D42E0020A1630200D19602008A
:10636000FEE7FEE7FEE7FEE7FEE7FEE7FEE7FEE705
:10637000FEE7FEE7704700BF1048804710484FF027
:106380000701884385460F4880470F48016841F45C
:1063900070010160BFF34F8FBFF36F8FFFF730BF06
:1063A0000A480B490B4A884207D0521A05D0037895
:1063B00001300B700131013AF9D170477563020069
:1063C00000000120997A020088ED00E0ACB60200DE
:0863D000701D0020701D00206B
:1063D800F0B595B01C46164608460D4601F06FFA12
:1063E8001A9B0D93CDE9086400242346082205A9C9
:1063F80028460A948DF82C400C9401F07EFA079BED
:106408000293BDF81830ADF80C30BDF81A30ADF86D
:106418000E309DF814308DF8114003F00302012A64
:106428001DD1BDF81440059EC3F3C203C4F3831401
:106438008DF81030A20008230EA9284601F05DFA55
:10644800C6F3952608AB0093224602AB0EA9304648
:1064580000F0E4FB284601F036FA15B0F0BD022A38
:10646800F8D1BDF81640C3F3C203A4098DF8103063
:106478000827082C264628BF08263B4632460EA980
:10648800284601F03AFAA41B08AB02AA31460EA826
:10649800374400F027FC002CEBD1DBE7014B01224D
:1064A8001A707047D12000207047000070B50E4D5B
:1064B80006460FCD88B06C460FC495E80F0084E8F7
:1064C8000F0008A9002E4FF00603084A41F8203DA6
:1064D80008BF0022064801F00FFD08B100F06EFC6D
:1064E800044B1E7008B070BDACB60200A564020073
:1064F800701D00209020002007B5044B0093044A2B
:106508004023FFF765FF03B05DF804FB1D6502003B
:106518009120002038B50D4B0D4D002018700D4806
:1065280004782D5DD2B21C4665B1043002F0DEFA63
:1065380008B100F043FC084B1A7812B12378002BFD
:10654800FBD038BD0C3002F0CBF8F1E7D1200020A9
:10655800C4270020701D00209020002008B508489E
:10656800084A0378D35C3BB1043002F05BFA0020A0
:10657800BDE80840FFF79ABF0C3002F04DF8F6E787
:10658800701D0020C42700200120FFF78FBF0000E6
:1065980008B5FFF7F9FF0421034800F0ADFA034BF3
:1065A80001225A7108BD00BF9CB60200841D00205C
:1065B800037813F0040216D003F00303012B03D071
:1065C800022B09D0012070470A6800880232C0F304
:1065D800831002440A60F5E70B684288023303EB34
:1065E80092130B60EEE71046704700002DE9F04F5C
:1065F80089B00546861C08A8484C019200230F461E
:1066080000F8113D00F01EFE23683B60D4E9012329
:106618001344226801339B1A04F21C4704F5836A69
:1066280004F21448B3421AD3019A0023002A6DD009
:10663800012262F3010343F0040365F3891321681F
:10664800A2689DF80F000A4003320E4444F8223035
:10665800266000F01BFE012009B0BDE8F08F012183
:10666800384600F070FE504600F083FE404600F0C9
:1066780080FE0DF120096068D4F808B049F8100DC3
:1066880000EA0B00033004EB80004946FFF790FF57
:10669800049BB0B90BEA030204EB8202D1680591AE
:1066A8009A1C013303EA0B0B04EB8B0C01F0030378
:1066B800012B0492DCF80CB020D0022B04D08346C6
:1066C8000BE00BEA0300DDE7BDF816309B09033346
:1066D8004FEA1B4B02EB93030493404600F04CFE39
:1066E80008B1049B63605946384600F02CFED4E993
:1066F80001231344226801339B1A93E7BDF8143031
:10670800C3F383134FEA1B4B1344E5E7022262F3FA
:10671800010343F0040365F39F5390E7A42100208D
:106728000B4B0C48FF2210B59A600022C3F81824BE
:10673800C3E90022C3F8142483F8202401F078F870
:10674800044610B9044801F021F9204610BD00BFE5
:10675800A421002070B60200ECB6020030B50A4C45
:1067680071B10A4A0A49121BD20800239A4201D180
:10677800002030BD31F82350854202D00133F5E7BF
:10678800034654F83300F4E7E8B5020070B6020097
:10679800701D0020094B013903EBC000032909D8FB
:1067A800DFE801F00A020406042070470079704708
:1067B800407970470020704702207047E8B5020012
:1067C800034BD3E90030C31A58425841704700BF01
:1067D800A42100202DE9F04387B0FFF7F1FF06461A
:1067E800002840F0FC807F4DC5F81804BFF34F8F98
:1067F8006868AC6806AF47F8100D2040033005EB19
:1068080080003946FFF7D4FE029B18B1D5F818244A
:10681800002A5FD004EA0302991C013305EB8202C7
:10682800234005EB8303D268DB68049302F003037B
:10683800022B0392029162D1BDF80E306A484FEAEA
:106848009318B8F1500FC14628BF4FF0500969F3AB
:106858008F1309F10801ADF80E3001F001F8074671
:10686800002800F0A78001F02AF803A900230822D5
:10687800384601F037F8029924EA01060136B600D5
:10688800B14535D95FFA89F97EB3F6B2A9EB0609A5
:10689800214003315FFA89F4B146544E05EB81017A
:1068A80008234A46384601F01DF836B109F10803B5
:1068B80022463146384601F015F8029B08F10308D4
:1068C80003EB98030293D5F81834002B4BD1D5F875
:1068D80010445BE02A689A4204D86A60304607B0E0
:1068E800BDE8F08304EA030088E740493446D7E767
:1068F8002140033108234A4605EB8101DAE7012BE1
:1069080058D1BDF80C303848C3F38311062928BF85
:10691800062161F3891302318900ADF80C3000F0CB
:106928009FFF0746002845D000F0C9FF0023082232
:1069380003A9384600F0D6FF0026BDF80C20C2F3A4
:106948008312B31C96424FEA8303BCD202994A1CB5
:1069580021400331029205EB81010422384600F000
:10696800C1FF0136E9E7384600F0ADFFFFF728FF21
:1069780080F00100C6B2B1E7E3685B7923B1236810
:1069880039461B6820469847E3681C68002CF3D1F9
:10699800384600F098FF06A800F8114D00F052FCA8
:1069A800D5F818340BB9029B6B609DF8070000F00E
:1069B8006DFCDBE7D5F8104454B90D4B0D480E4972
:1069C800C01AC008000440F0020000F06FF8CDE7DC
:1069D800236820469B689847E3681C68ECE7002614
:1069E8007CE700BFA421002070B60200B02100207F
:1069F800E8B5020018B60200F8B602002DE9F74F14
:106A0800284C80460F46924601A9012218469B460B
:106A1800D4F80890FFF7EAFD88B3019D0026A91C69
:106A28005E4506EB010234D100211F4800F060FCEE
:106A380080F310006A1C02EA090204EB82020004D7
:106A480005EA0903033340EA1840D06014F823200C
:106A580068F3C50204F8232034F8232066F389126A
:106A680024F8232054F82320012167F39F2244F8B7
:106A7800232061F301026FF3820204F8232094F8C3
:106A880020341BB1FFF7A6FE0028FBD103B0BDE8F8
:106A9800F08F09EA020204EB82025AF82630D3602A
:106AA8000136BDE7A4210020C025002000231A4696
:106AB800FFF7A4BF13B502AC012344F8042D224606
:106AC800FFF79CFF02B010BD07B5CDE900230223F4
:106AD8006A46FFF793FF03B05DF804FB1FB5CDE9E5
:106AE8000023069B0293079B03936A460423FFF740
:106AF80085FF05B05DF804FB30B50F49D1F81024C7
:106B0800002314463CB9C468237152B9C1F8100473
:106B18002260184630BDE46825799D4206D0246875
:106B2800F0E7D268116821601060F2E701330A2BA0
:106B3800E7D14FF0FF33ECE7A4210020094A38B52C
:106B48000123D2F8104482F820341D4604B938BD18
:106B5800E3685D71236820465B689847E3681C68B2
:106B6800F4E700BFA4210020037A052B10B50C46DA
:106B78000FD0437A23B1084A0849204600F05DFC4B
:106B88000749204600F059FC2046BDE8104000F0B7
:106B980049BC002AF8D0F3E743B7020048B702001F
:106BA80024C40200C38873B504460D4633B1144AA1
:106BB80000921449144A284600F03FFC217A05291E
:106BC8001CD0637A4BB1A088FFF7E4FD0F4B104946
:106BD80053F82020284600F030FC227A0D4BA0887C
:106BE80053F822600021FFF7B9FD0B4903463246EE
:106BF800284602B0BDE8704000F01FBC02B070BD6E
:106C080043B7020053B702004BB7020010B70200A7
:106C180048B7020078B702006BB702002DE9F043CD
:106C280085B01F460C9D002306460C46904695F8F5
:106C38000C902B7329463846FFF7B4FFB8F1060FBE
:106C480009D8DFE808F00412181F2833400031463D
:106C5800284600F0F2FB002229463846FFF784FF59
:106C680085F80C9005B0BDE8F083226831462846C7
:106C780000F0E3FBEFE7D4E900233146284600F0B3
:106C8800DCFBE8E7A36800933146D4E900232846F3
:106C980000F0D3FBDFE7E3680193A3680093314674
:106CA800D4E90023284600F0C8FBD4E723690293FF
:106CB800E3680193A36800933146D4E9002328468A
:106CC80000F0BBFBC7E76369039323690293E3689A
:106CD8000193A36800933146D4E90023284600F0C5
:106CE800ACFBB8E708292DE9F84F80460E46174651
:106CF8001C4636D8002593F80C901D73194610468B
:106D0800FFF750FFDFF87CA0DFF87CB0AE422AD94D
:106D180018F805205946204600F08FFB0135082D4C
:106D2800F4D11649DFF864B0204600F086FB002550
:106D3800AE421DD918F805A0504604F065FB00289E
:106D480014BF52462E225946204600F076FB0135E4
:106D5800082DEDD1012221463846FFF705FF84F8BA
:106D68000C90BDE8F88F5146204600F066FBD5E749
:106D78000349204600F061FBE9E700BF3EB7020087
:106D88003CB702003AB7020034B7020040B702002D
:106D980070B5084D084E00242B789C4201D3002082
:106DA80070BD3368012113F8340001F063F9013430
:106DB800F2E700BF60260020642600201FB50021EE
:106DC800039001AA44F20100CDE9011100F004F892
:106DD80005B05DF804FB000010B572B6FFF7AEFE13
:106DE800FFF7F8FC0028FBD1104B114C1149E41AAD
:106DF800E408240444F00100FFF758FE0E4B1B681A
:106E0800DB0700D500BE0D4944F00200FFF74EFE37
:106E1800BFF34F8F0A490B4BCA6802F4E062134371
:106E2800CB60BFF34F8F00BFFDE700BFE8B502009E
:106E380018B60200D7B70200F0ED00E0E3B7020091
:106E480000ED00E00400FA05024B2F2043F0010397
:106E5800184700BFF0B7020038B50C4B0C4C4FF484
:106E68000032C3F8802001254FF48033C4F848333A
:106E7800C4F808336560FFF7E7FF064BA5600024F8
:106E88001C60FFF7E1FF044B1C7038BD00E100E017
:106E9800001001408427002075270020F8B51F4BFB
:106EA8001F491B680025C1F84051C1F84451C1F879
:106EB8004851C1F84C51C1F80051C1F804514BB3C5
:106EC800D1F8044517490968641A24F07F442F460D
:106ED8001A68A24209D8A41A15441A7CDE691AB1A4
:106EE8001F74D3E905209047AEB90F4B0F4A1978A4
:106EF80013788B4205D10133DBB2022B08BF002384
:106F0800137012780A4B43F822500A4B4FF4801240
:106F1800C3F80021F8BD3346DAE700BF8827002010
:106F280000100140842700208027002081270020AE
:106F38007827002000E100E02DE9F74F9E4A9F499D
:106F4800137809789E4D99423CD00133DBB2022B6D
:106F580008BF002313709B4912789B4B0F6853F8A6
:106F680022003B1823F07F4300220B602B68164653
:106F78001446944613B942B12B6006E01968814261
:106F88000ED902B12B60091A19604FF001082B685D
:106F9800DFF83CA200930027BEB9DFF83CB260E0FE
:106FA800401A0C44D968C3F800C0D3F81CE031B1CA
:106FB8003A1922F07F42C3E90121DE611E4601220F
:106FC8007346D7E70026B046E1E73446F6697D4ABE
:106FD80063681268DFF804C2A068991A21F07F413B
:106FE800614500F2A58001442160012222742A68CB
:106FF8000023C4E90133E361002A40F0A2802C6039
:10700800CAE75A1C9BF80210D2B291428BF80020B2
:1070180004BF00228BF80020182202FB03B32A6861
:1070280019799C68022974D003297ED0012918D1C6
:10703800217CB1B9DA6862601A69A2605A699B69F1
:10704800A361624BE2601B78002BC0D06160BEE791
:107058009C4200F093809946DB69002BF8D100230D
:1070680023749BF800309BF801209A42C9D12B6801
:107078002FB9009A934202D1B8F1000F43D0002BE8
:1070880079D0D3F800A0524D4E4BD5F804751C6842
:10709800DFF84C813E1B98F8003026F07F46033617
:1070A8009BB94FF48033C5F84433C5F80433494BD2
:1070B8004FF400324FF00109C3F880211A60C5F877
:1070C8000090FFF7C1FE88F80090B2452CBF5444E9
:1070D800A41924F07F44C5F84045D5F80435DB1BD6
:1070E80023F07F43E41B033324F07F44A3420AD9EF
:1070F800D5F80435C5F84035FFF7A6FE354B4FF4F3
:107108000032C3F80021314B00221A7003B0BDE8E9
:10711800F08F13469146A0E71174D2690123002A23
:10712800FAD1002B9DD02A609BE700231946F6E789
:10713800D31A23F07F43834234BFC31A002323604A
:1071480053E721681368994213D8591A1160E2610C
:1071580055E7091AD8691A4638B1034618688842AB
:10716800F7D3401A1860184613462160E061DC61C5
:1071780012E71346F2E7FFF76FFEC4E74C450DD15F
:10718800D3692B6053B90F4801920121CAF808103E
:1071980003600E4B1970FFF757FE019AE1692368E7
:1071A800C9F81C1011B1086803440B602B689A4297
:1071B80018BF012753E700BF802700208127002040
:1071C80088270020842700207827002074270020A3
:1071D8000010014000E100E068260020FEFF7F006B
:1071E8007527002008B5FFF737FE104B00200B224B
:1071F80018809A700E4B18600E4B18700E4B187052
:107208000E4B4FF48012C021C3F8802183F8141369
:107218001A6002F18042A2F56F22C2F8080583F8CD
:107228001113074BD2F804251A6008BD6826002000
:1072380088270020802700208127002000E100E027
:107248008427002070B5EFF3108672B60C4A946854
:1072580001239CB993600B4B0B4DD3F88010294048
:107268001160C3F88050D3F8841051604FF0FF329A
:10727800C3F88420047006B962B670BD0370FAE7DB
:107288008C27002000E100E0FC06FFBD084B9A684F
:1072980010B55AB150B9EFF3108172B6054A1C689F
:1072A80014605C685460986001B962B610BD00BF94
:1072B8008C27002000E100E001F01F024B090121AA
:1072C800914000EB830000F01DB801F01F0301227C
:1072D8009A404B0900EB8300D14300F029B84B09D1
:1072E80001F01F0150F82300C84000F0010070476A
:1072F80050E8002F0B4640E8003C9CF0000FF7D107
:107308001046704750E8003F43EA010240E8002C6D
:107318009CF0000FF6D11046704750E8002F02EAA3
:10732800010340E8003C9CF0000FF6D1104670477E
:1073380050E8003F03EA010240E8002C9CF0000FEF
:10734800F6D11046704750E8003F03EB010240E8D1
:10735800002C9CF0000FF6D11046704750E8003F13
:10736800A3EB010240E8002C9CF0000FF6D1104678
:1073780070470121FFF7C6BF0021FFF7CEBF10B548
:1073880090B1D0E9012301689B1ADBB20A60013B86
:10739800DBB2FF2B026802D10020107110BD11680A
:1073A8004C1C14600B70F2E70E20F7E737B5054662
:1073B80002A8002400F8014DFFF744FF2A686B6813
:1073C800116899420ED9481E106011F8014CEB68FB
:1073D800298A01FB0434AB6811791B1ADBB2994284
:1073E80038BF13719DF80700FFF750FF204603B020
:1073F80030BD37B5054602A8002300F8013D0C460C
:10740800FFF720FF2A681368591C1160E968641A9D
:10741800298AB4FBF1F41C709DF80700FFF736FFCA
:1074280003B030BD826810B504462AB143690168CB
:10743800006998470023A36010BD0EB403B50399F3
:1074480029B102AA04AB42F8043D00F06BF802B07F
:107458005DF804EB03B07047826830B40468551CCB
:107468008560A154D0E901329A4202D330BCFFF7BB
:10747800D9BF30BC704700002DE9F84F9946DDE9C7
:107488000A431746824688460A460126BA420FD260
:107498004E4538BF4E4613F0010B01D164B90024A4
:1074A8000125B9F1010F1AD909F1FF397D43F8E730
:1074B800B2FBF7F20136E9E79B070ED5B9F1000FE9
:1074C8000CBF30252025A642EAD2013C2946504669
:1074D800FFF7C2FF002CF6D1E1E72025F3E7B8FB60
:1074E800F5F39F42E2D9DFF83890B8FBF5F3504640
:1074F80019F8031005FB1388FFF7AEFFB5FBF7F586
:10750800002DF2D1BBF1000F02D00CB1A64201D37D
:10751800BDE8F88F20215046013CFFF79DFFF4E7B6
:10752800F6B702002DE9F74F054690460E460029AA
:1075380000F03A8116F8011B002958D0252940F09F
:10754800D180002702E047F001071646324612F8BC
:10755800013B2D2BF7D0302B04D02B2B05D147F036
:107568000407F2E747F00207EFE700242A2B06F1A9
:1075780001021BD1D8F80030191D1B68C8F800108B
:107588001C44164633782E2B1CD101364FF0000AC6
:10759800314611F8012BA2F13000092814D80A232A
:1075A80003FB0A23A3F1300A0E46F1E712F8013C67
:1075B800A3F130010929E5D80A2101FB0434303C44
:1075C8001646D3E74FF0000A324612F8011B01F0C5
:1075D800FB0068281646F8D0692916D054D85829CF
:1075E80070D00ED825297DD03378002BA2D12B7BE3
:1075F800002B00F0D980284603B0BDE8F04FFFF714
:1076080011BF632968D06429EED1D8F80020D2F8D8
:107618000090111D89EAE972C8F80010A2EBE9721E
:107628004FF0010B092A61DCD34538BFD3462CB192
:10763800B9F1000F01DB790700D5013CBA0702D583
:10764800BAF1000F04D0FB0702D4002C54D1002457
:10765800B9F1000F58DAC9F100092D212846FFF7C2
:10766800FBFE07F00302022A05D1BAF1000F02D18E
:10767800002C4DD10024CDE9004753460A22494643
:107688002846FFF7F9FEAFE7732954D016D87029BA
:10769800AAD1D8F800301A1DC8F800203021284691
:1076A8001C68FFF7D9FE78212846FFF7D5FE00228F
:1076B8000823CDE9003221461022E1E775292FD0B1
:1076C800782991D1D8F800100A1DC8F80020CDE912
:1076D8000047534610222CE0D8F800301A1D1978BC
:1076E800C8F800202846FFF7B7FE7DE70A230BF10C
:1076F800010B92FBF3F295E7A345A9D22021284676
:10770800013CFFF7A9FEA0E77807AAD52B21A5E73A
:10771800A345B0D230212846013CFFF79DFEA7E7DC
:10772800D8F80010CDE900470A1DC8F800205346D4
:107738000A220968A4E7D8F800301A1DC8F8002002
:10774800F907D3F8009012D54F46A7EB090B17F8A5
:10775800011B41B9A345BFF447AF20212846013C8E
:10776800FFF77AFEF6E72846FFF776FEEDE7B9F170
:10777800000F17D0484603F0DEFE0746BC4200D98A
:1077880054B909F1FF3919F8011F00293FF42CAF4A
:107798002846FFF761FEF6E720212846013CFFF75F
:1077A8005BFEEBE74F46E9E703B0BDE8F08F2DE954
:1077B800F047B0F806904479D2F800A09DF82080F0
:1077C80009FB04F4043C06460AEB0300A0420F46FA
:1077D80088BFA4EB030A191DC2F800A0B1FBF9F594
:1077E80009FB15114DB9A9EB0104544528BF5446AE
:1077F800BAF1000F04D1BDE8F0873668013DF1E722
:1078080004317B1970182246B8F1000F0ED00146DA
:107818001846AAEB040A03F032FED145254436681F
:107828004C464FF0000128BF5446E1E71946F0E7FF
:10783800FFF7A5BDF8B546790146721E0546002337
:1078480093422D6803D30024A64202D8F8BD013321
:10785800F6E70F682846FFF7CCFD01343946F3E711
:107868002DE9F843068ACD1C0746FFF79FFD043E25
:1078780035440446B5FBF6F5F0B14FF48073EDB22C
:107888008380C680013D076081464FF00008A84507
:1078980012D23846FFF78AFD064648B163790133AC
:1078A800637108F10108C9F8000007608146EEE736
:1078B8002046FFF7BFFF34462046BDE8F883012184
:1078C8000430FFF740BD10B5012104460430FFF72E
:1078D80045FD10F0FF0F04D12046BDE81040FFF72A
:1078E800A9BF10BD1FB504AC44F8042D00220092B6
:1078F8002246FFF75CFF04B010BD1FB504AC44F886
:10790800042D012200922246FFF751FF04B010BD5A
:1079180041DF7047064B10B500241C70054B1C60F6
:10792800BFF35F8F0449054800F039F8204610BDC1
:10793800A0270020A427002008B8020098270020CC
:1079480007B502A8002300F8013DFFF77BFCF1EE24
:10795800103A23F09F03E1EE103ABFF35F8F0A4B12
:107968004022C3F884219DF80700FFF78FFC02F03E
:1079780003FF20B1FFF7CCFF03B05DF804FB20BF85
:1079880040BF20BFF8E700BF00E100E083680022A5
:107998005A609A60C3E90422DA601A6070470B687B
:1079A8004A684360934208BF0023016008BF4360F0
:1079B8007047436843B10268916852680B44934228
:1079C800436004BF00234360704700000D4930B591
:1079D800A1F594720225914201D800200EE08B1A7D
:1079E800DB1093FBF5F302EBC30452F83330834208
:1079F80005D802D204F10802EDE7606830BD2146DF
:107A0800E9E700BF58B9020008B5FFF7DFFF024BEE
:107A1800002808BF184608BD1DB802000C4B1B788B
:107A2800062B10D10B4B1B681A070CD10A4B186890
:107A380000F0F003302B08D000F0E000A0F1400384
:107A4800584258417047002070470120704700BFD6
:107A5800E00F00F0E40F00F0E80F00F0094B1B788E
:107A6800062B0CD1084B1B681A0708D1074B18685E
:107A780000F0F000A0F13003584258417047002050
:107A8800704700BFE00F00F0E40F00F0E80F00F0CF
:107A980008B5FFF7C3FF28B17D4B7E4A1B68C3F3C7
:107AA80004231360FFF7DAFF10B17B4B7B4A1A609F
:107AB800FFF7B4FF28B17A4B7A4A1B68C3F3423305
:107AC8001360FFF7CBFF20B1774AD36823F08073A8
:107AD800D360FFF7A3FF40B14FF080430022C3F803
:107AE8000C21C3F81021C3F83825FFF7B7FF10B1F0
:107AF8006E4B03221A60FFF7B1FF40B16C4B0522B1
:107B08001A6001229A6700229A603F225A60694BE4
:107B18001B78062B50D1684B1B6819074CD1674B53
:107B28001B6803F0F003502B46D14FF08052644B92
:107B3800D2F80414C3F82015D2F80814C3F8241591
:107B4800D2F80C14C3F82815D2F81014C3F82C1561
:107B5800D2F81414C3F83015D2F81814C3F8341531
:107B6800D2F81C14C3F84015D2F82014C3F84415F1
:107B7800D2F82414C3F84815D2F82814C3F84C15C1
:107B8800D2F82C14C3F85015D2F83014C3F8541591
:107B9800D2F83414C3F86015D2F83814C3F8641551
:107BA800D2F83C14C3F86815D2F84014C3F86C1521
:107BB800D2F84424C3F87025FFF730FF28B1414BB1
:107BC800414A1B6803F04F031360FFF727FF48B1D2
:107BD8004FF08043D3F80024D20744BF6FF001026E
:107BE800C3F80024394B1B68062B08D1384B1B6897
:107BF800062B01BF374A136843F480631360364A83
:107C0800D2F8883043F47003C2F88830BFF34F8F3E
:107C1800BFF36F8F4FF01023D3F80022002A03DB45
:107C2800D3F80432002B2FDA2C4B0122C3F8042599
:107C3800D3F80024002AFBD04FF010221521C2F8F7
:107C48000012D3F80024002AFBD04FF0102315228D
:107C5800C3F80422214B1A46D3F800140029FBD09C
:107C68000021C3F80415D2F80034002BFBD0BFF371
:107C78004F8F19491A4BCA6802F4E0621343CB606C
:107C8800BFF34F8F00BFFDE7164B174A1A6008BDB8
:107C9800240300104035014074C007400DF0ADBA10
:107CA800440200103C050040F0ED00E0A005004053
:107CB80010560040E00F00F0E40F00F0E80F00F06D
:107CC80000C0004058020010E40E004030010010CF
:107CD800340100103C17004000ED00E000E00140D6
:107CE8000400FA058C1D00200090D003044B1A5C98
:107CF800012393404FF0A042C2F80C35704700BFF3
:107D080012BD0200044B1A5C012393404FF0A042BD
:107D1800C2F80835704700BF12BD020008B5002040
:107D2800FFF7F0FF0120FFF7EDFF0220FFF7EAFF62
:107D38000320BDE80840FFF7E5BFC20708B50146C4
:107D48000CD54FF0A0430322C3F84427C3F84827B3
:107D5800C3F84C27C3F85027FFF7E0FF8B070AD575
:107D68004FF0A0430C22C3F83427C3F83827C3F8D0
:107D78003C27C3F8402708BD38B5084C04F1080370
:107D88000546002818BF1C4623682BB11A682260D4
:107D98005B6828469847F7E738BD00BFB027002042
:107DA80020B9054B01225A70FFF7E6BF012802D11E
:107DB800014A9070F8E77047A827002020B9034BC4
:107DC80001225A70FFF7D8BF704700BFA8270020CC
:107DD80038B50B4C237883B90A486360A3602361E4
:107DE800E36000F0D1F8054602F0C6FC08B900F0DF
:107DF800D9F801232370284638BD8525FBE700BF45
:107E0800A8270020A97D020037B502A80023094C45
:107E180000F8013DFFF716FAE368013BE360E56807
:107E280015B900F0D3F8A5709DF80700FFF72EFAF2
:107E380003B030BDA8270020012813B509D003D30B
:107E480003281BD002B010BD0F4B0122C3F88020BD
:107E5800F8E702A800230D4C00F8013DFFF7F2F9FE
:107E680023780BB9FFF7B4FFE3689DF807000133E7
:107E7800E3600123A370FFF709FAE3E700F092F843
:107E8800FFF7C2FFDEE700BF00E100E0A8270020FF
:107E98001FB503788DF8003043680193037A8DF895
:107EA8000830C3680393054A054B684653F82130E8
:107EB80052F82110984705B05DF804FBBC27002054
:107EC800C02700201FB503788DF800304368019360
:107ED80083688DF80830C3680393054A054B6846E4
:107EE80053F8213052F82110984705B05DF804FB8B
:107EF800BC270020C0270020F0B5194B067891F860
:107F08001DE043F82620174B94460A6943F82620BB
:107F1800154B03F806E00C4607460FCC89B06D46B2
:107F28000FC594E80F0085E80F000496BEF1000F16
:107F38000AD0BCF1000F0D4A694608BF0022381D5F
:107F480000F0A8FC09B0F0BDBCF1000F084A694672
:107F580008BF002207F10C0000F09EFAF2E700BF0C
:107F6800C0270020BC270020C4270020997E0200DB
:107F7800CD7E020000F18040002382B003600368D8
:107F88000193019B02B07047054A13792BB901216F
:107F9800106011715371184670478520704700BFF3
:107FA800C8270020084B1A68D20706D4C02283F8D5
:107FB80000230122C3F880211A604FF08043012278
:107FC800C3F81825704700BF00E100E0044B012208
:107FD8001A604FF08042D2F81834DB03FBD47047A4
:107FE8000C000040124B1B6810B573B14FF4807041
:107FF800FFF7C0FF4FF080430122C3F808230D4B61
:10800800587910B95A711B6898470B4B1B6873B1A4
:108018004FF48270FFF7AEFF4FF080430222C3F89F
:108028000823044B01201B68BDE81040184710BD09
:1080380000010040C82700200401004000F18040F2
:1080480000F5C040002382B0036003680193019BE0
:1080580002B07047800000F1A040D0F8003723F448
:108068004033C0F80037D0F8003743EA0141C0F880
:108078000017704738B5204C251895F93020072A85
:1080880018DD224492F848309B09032B0DD14FF09C
:10809800A043D3F81035C34013F0010F0CBF0221E1
:1080A8000321BDE83840FFF7D5BF012B14BF0321DA
:1080B8000221F6E7D3B2072B1CD8930003F18043C3
:1080C80003F5C043D3F8100540F00100C3F81005CC
:1080D80002F14000800080B2FFF7B0FF51B195F97E
:1080E800303054F823302BB1012303FA02F2034B4A
:1080F800C3F8042338BD00BFD0270020006000402B
:108108002DE9FF470024584A584E594D0194012142
:108118001368A2F5C040012B80B206D1D6F804330B
:108128000B4202D0FFF78AFF0C430432AA424FEAFF
:108138004101EDD14F4B1B68012B0AD14FF4BE70A2
:10814800FFF77CFF4FF0A04344F00044D3F810350C
:10815800019314F0FF0F1AD0474F0025012634422F
:1081680010D0AB0003F1804303F5C043D3F81005EA
:10817800D3F8101557F82530C0F30420C1F3014196
:1081880003B198470135082D4FEA4606E7D1002C80
:1081980066DA00224FF0FF33CDE90223DFF8D890EA
:1081A8000127002634464FF0A04809EB060393F94F
:1081B8005020531C45D0D2B222F0C005E90804A8CB
:1081C800084402F0070310F804CC07FA03F31CEA8A
:1081D800030F36D009EB050C92099CF930C059F809
:1081E8002CA0BAF1000F0AD1032A2AD10DF1080EEA
:1081F8001EF801C04CEA030C0EF801C001E0032A86
:10820800F4D005F5E07110F80C0C58F8211018425C
:10821800C1F3014105D0022913D1032A0BD111461C
:1082280004E003290DD1032A05D102212846FFF7CE
:1082380011FF0134E4B2BAF1000F02D0114628460A
:10824800D0470136042EB0D154B14FF0A043019A63
:10825800D3F81035934203D00193029B0393A0E710
:1082680004B0BDE8F08700BF006100400060004036
:10827800206100407C610040D0270020014B1B6832
:10828800184700BF2C2800200D4B984237B50D46E3
:1082980010D102A8002300F8013DFEF7D3FF094BD7
:1082A8001C7914B901221D601A719DF80700FEF7A8
:1082B800EDFF14B9002003B030BD1120FBE700BF6B
:1082C800002000402C280020034B984201BF034B9C
:1082D80000221A601A717047002000402C280020E4
:1082E8000023435082B043580193019B02B070476A
:1082F8000A4610B54FF48E71FFF7F2FF136A9168C2
:10830800C95C136A01331362C0F81C1510BD8B6970
:108318000A4610B54FF4847123B9FFF7E1FFD0F88E
:10832800183510BDFFF7DCFF536AD168D0F818057F
:10833800C854536A01335362F3E700001FB50123A1
:108348008DF80030044BCDE90110D3E900126846DE
:10835800904705B05DF804FB3428002030B54C4A3E
:10836800D2F8043313F4007F85B015464FD0D2F805
:108378002431002B4BD04FF492711046FFF7B0FF19
:108388004FF40173C2F80833424B93F8291009B926
:10839800012151603E4902228DF80020D1F8802445
:1083A800C1F8802403929A690292DA680192002245
:1083B800C3E906226846D3E9001290473448D0F84A
:1083C8001C315BB133490A6A4B699A420A464BD25F
:1083D80091F82830002B47D1FFF78AFF2C4AD2F8B2
:1083E800443193B14FF4A2711046FFF779FF294B3E
:1083F80093F8291009B1012111609A692AB1002264
:108408009A61586AD968FFF799FF05B030BDD5F869
:1084180004335B07D2D5D5F80831002BCED01D4CDC
:108428001B482146FFF773FF636AA2699A422346F5
:10843800C4D1E269E1684AB12369E3600023606A54
:10844800A261E3616362FFF779FFB7E794F8292037
:108458000AB901226A600E4A4FF40170C2F8080393
:1084680000229A61586AEEE74FF48E710848FFF7C8
:1084780037FF51690029B1D00023029191688DF826
:108488000030019153616846D2E900139847A5E787
:1084980000200040342800202DE9F8435A4B047985
:1084A80091462C2202FB0432064692F82A200D46F9
:1084B8009846002A40F0A38054490068FFF7E4FE7C
:1084C8000746002840F09D8029683368481C0BD077
:1084D8004FF0A04001228A40C0F8082501F5E0725B
:1084E8004FF0030C40F822C06868421C1FBF00F51B
:1084F800E0724FF0A04C4FF0000E4CF822E0AA6951
:1085080095F814C0C3F824256A7DBCF1010F4CEA24
:108518000202C3F86C25C3F81405C3F80C151DD165
:10852800AA68511C1FBF02F5E0714FF0A0404FF040
:10853800000C40F821C0E968481C0BD04FF0A04C53
:1085480001208840CCF8080501F5E0704FF0030ED3
:108558004CF820E0C3F80815C3F810252C23634312
:1085680008EB0302C2F804902A6948F80320B9F11D
:10857800000F31D04FF48E7130682D7FFFF7B0FEB9
:1085880030684FF4A271FFF7ABFE3268204BC2F897
:108598000433120B53B2002BA8BF03F160404FEA1B
:1085A80053134FEA4511BABF1A4802F00F0500F5F8
:1085B80061404FEA8303C9B203F16043B4BF415538
:1085C80080F8001303F5614302F01F02012101FA4C
:1085D80002F2C3F880211A6033680422C3F8002528
:1085E8002C2303FB04830022C3E9062283F82920F5
:1085F8005A61012283F82A203846BDE8F883082703
:10860800FAE71127F8E700BF342800206583020045
:108618008000020014ED00E0F8B5047900682D4DE3
:108628000023C0F800352C2303FB04535B6873B1A7
:10863800294BC0F80833020B53B201215B0902F041
:108648001F0201FA02F22033244941F82320D0F80E
:108658000C65D0F81415D0F80835D0F810254FF06F
:10866800FF37BE42C0F8147518BF06F5E076C0F8AB
:108678000C75C0F80875C0F810751EBF4FF0A047FC
:108688004FF0020C47F826C04E1C1FBF4FF0A04603
:1086980001F5E071022746F82170511C1FBF4FF009
:1086A800A04102F5E072022641F822605A1C1FBF61
:1086B80003F5E0734FF0A042022142F82310FFF7C0
:1086C80003FE2C2303FB0454002384F82A30636040
:1086D800F8BD00BF342800208402020000E100E059
:1086E8002DE9F843224F06794FF02C0909FB06744F
:1086F80080466569002D37D16261A16025624FF41B
:108708008E71006884F82850FFF7EAFDD8F8000059
:10871800012383602146FFF7EBFD6368A1462BBB6D
:10872800D8F80050226A63699A4212D3D8F8003008
:10873800D3F81C21002AFBD00122DA6000202C2368
:1087480003FB067600237361BDE8F88394F82830AC
:1087580043B9D5F81C31002BF8D049462846FFF715
:10876800C7FDDFE70F20EAE71120EDE72846EBE732
:10877800342800200023435082B043580193019BC2
:1087880002B070471FB501238DF80030054B8DF8F6
:10879800080001916846D3E90012904705B05DF8DA
:1087A80004FB00BF602800207FB5384AD2F8246156
:1087B800002E49D010464FF49271FFF7DBFF0223D9
:1087C8008DF80030D2F88034C2F880340393D2F8A0
:1087D8003C358DF808302E4BDA6801920022C3E947
:1087E80006226846D3E900129047284AD2F8443155
:1087F80073B14FF4A2711046FFF7BCFF244B99697F
:1088080031B100219961D2F83C05D968FFF7BAFF68
:108818001E4AD2F82031ABB14FF490711046FFF7E1
:10882800A9FF1B4B596969B1D2F84C158DF808108E
:10883800002299688DF8002001915A616846D3E9B1
:108848000012904704B070BDD2F81031002BCCD084
:108858004FF488711046FFF78DFF0D4BD2F83C0599
:1088680099698842C1D1DC69D96864B1D2F80052EB
:1088780025F02005C2F800521A699C61DA60DE61B1
:10888800FFF780FFB1E79C61FAE700BF00200040D6
:10889800602800202DE9F8435E4B06799146242292
:1088A80002FB0632044692F820200D469846002A1C
:1088B80040F0AB8058490068FFF7E6FC07460028FF
:1088C80040F0A58029682368481C0BD04FF0A040D1
:1088D80001228A40C0F8082501F5E0724FF0030C28
:1088E80040F822C06868421C1FBF00F5E0724FF0D4
:1088F800A04C4FF0000E4CF822E0AA6995F814C07D
:10890800C3F824256A7DBCF1010F4CEA0202C3F8C2
:108918006C25C3F80C15C3F814051DD1AA68511CA1
:108928001FBF02F5E0714FF0A0404FF0000C40F877
:1089380021C0E968481C0BD04FF0A04C01208840AA
:10894800CCF8080501F5E0704FF0030E4CF820E074
:10895800C3F80815C3F810252423734308EB030252
:10896800C2F804902A6948F80320B9F1000F3BD0F7
:108978004FF4887120682D7FFFF7FCFE4FF490714B
:108988002068FFF7F7FE4FF492712068FFF7F2FEB8
:1089980020684FF4A271FFF7EDFE22681F4BC2F862
:1089A8000433120B53B2002BA8BF03F160404FEA07
:1089B80053134FEA4511BABF194802F00F0500F5E5
:1089C80061404FEA8303C9B203F16043B4BF415524
:1089D80080F8001303F5614302F01F02012101FA38
:1089E80002F2C3F880211A6023680822C3F8002520
:1089F800242303FB06830022C3E906225A610122CD
:108A080083F820203846BDE8F8830827FAE71127BD
:108A1800F8E700BF60280020B187020010030200B9
:108A280014ED00E0F8B5047900682D4D0023C0F876
:108A38000035242303FB04535B6873B1294BC0F84A
:108A48000833020B53B201215B0902F01F0201FA3D
:108A580002F22033244941F82320D0F80C65D0F8DD
:108A68001415D0F80835D0F810254FF0FF37BE425E
:108A7800C0F80C7518BF06F5E076C0F81475C0F894
:108A88000875C0F810751EBF4FF0A0474FF0020CD4
:108A980047F826C04E1C1FBF4FF0A04601F5E071F5
:108AA800022746F82170511C1FBF4FF0A04102F564
:108AB800E072022641F822605A1C1FBF03F5E073DA
:108AC8004FF0A042022142F82310FFF7FDFB2423B8
:108AD80003FB0454002384F820306360F8BD00BF12
:108AE800602800201003020000E100E001F060436C
:108AF800B3F1005F2DE9F041074632D11C4B0679EE
:108B0800242505FB063598466C6964BB6A61A96033
:108B180000684FF49071FFF72DFE4FF4AC71386880
:108B2800FFF728FE3B686A69A968C3F84415C3F8CB
:108B3800482501229A606A68BAB9D3F82011D3F897
:108B4800582149B9002AF8D00F20242303FB0686B0
:108B580000237361BDE8F081002A14BF0F200020B4
:108B6800F3E71020F6E71120F4E72046F2E700BF0C
:108B7800602800201FB503788DF8003003798DF840
:108B8800043043798DF8053083688DF80630C36862
:108B98008DF807300369029343690393054A064B2E
:108BA800684653F8213052F82110984705B05DF80F
:108BB80004FB00BF842800208C280020024B0420DE
:108BC80043F00103184700BF40BD02002DE9F047FC
:108BD80091460778324A42F82790324A42F82730BD
:108BE8004B7B80460C4663B30868496882008B005B
:108BF80002F1A04203F1A04340F20C65C2F800570D
:108C08000126C3F800574FF0A04506FA00F006FA0F
:108C180001F1C5F80805C5F8081540F20D61C2F85C
:108C28000017C3F80017FFF7C9FF4FF0000AD5F87F
:108C38001025636822FA03F3DB070FD5BAF1000F9A
:108C48001FD1B9F1000F3B46174A214608F104002D
:108C580008BF0022BDE8F04700F006BA236806FA0C
:108C680003F3C5F80C35FFF7A9FF236806FA03F3E9
:108C7800C5F808350AF1010AFFF7A0FFBAF1090F94
:108C8800D5D1636801254FF0A04605FA03F3C6F86D
:108C98000C35FFF793FF63689D40C6F80855D0E789
:108CA8008C280020842800207D8B0200002343505C
:108CB80082B043580193019B02B070472DE9F047F9
:108CC8000D78089E9DF824A004460F469946002D6D
:108CD8005ED1D0F82431D2F800803BB14FF49271C4
:108CE800FFF7E4FF012363613B7017E0D0F81C3104
:108CF80053B34FF48E71FFF7D9FFD0F824311BB16D
:108D08004FF492712046EBE713689E4212D919F886
:108D18000330C0F81C35136801331360B04535D1F2
:108D2800D4F8043193B34FF482712046FFF7BEFFA5
:108D3800002504E00123BAF1000F03D0C3612846DF
:108D4800BDE8F0874361E9E7D0F80831002BE5D0AA
:108D58004FF48471FFF7AAFFD0F82431002BCFD14C
:108D680013689E42DAD9D0F8181509F80310136869
:108D780001331360721E934205D10223C0F80032FA
:108D880001232362CAE79E42FAD1C7E70125D6E745
:108D98004FF49271FFF78AFF4FF48E71FFF786FF49
:108DA8004FF48471FFF782FFBAE700002DE9FF470F
:108DB8000C4605461F4620463B4B03934FF48271F1
:108DC80016469DF83080FFF771FF4FF49271FFF758
:108DD8006DFF4FF48E71FFF769FF4FF48471FFF751
:108DE80065FF0023C4F800326B6385F82E30012339
:108DF8002362A3606A6B97421DD9B35CC4F81C3523
:108E08006B6B01336B632B68E3B905F1340A05F129
:108E18002E09039B002B1FDC95F82E3053BB002036
:108E2800039B002B15DC0023C4F800350523C4F888
:108E3800003503200DE0B8F1000F01D0E361E2E74F
:108E48006361E0E740F28623AB60AB68C4F80433A3
:108E5800002004B0BDE8F087CDE9007833465246DB
:108E680049462046FFF72AFF0028D5D0039B013B3F
:108E78000393CEE7D4F8C434C4F8C434002BCED05E
:108E880013F0010F14BF4FF40240032048F20122EF
:108E980013F0020F18BF104613F0040F48F2022314
:108EA80018BF1846BCE700BFA08601002DE9FF47A0
:108EB8000C4605461F462046354B03934FF48271F6
:108EC8009246FFF7F3FE4FF49271FFF7EFFE4FF46F
:108ED8008E71FFF7EBFE4FF48471FFF7E7FE002376
:108EE800012F2E686B6385F82E3008BF02224FF0E1
:108EF80001030CBFC4F80022C4F8003223622360C7
:108F0800AEB905F1340905F12E08039B002B18DCD6
:108F180095F82E301BBB0020039B002B0EDC002392
:108F2800C4F800350523C4F80035032006E040F2F4
:108F38008623AB60AB68C4F80433002004B0BDE8F6
:108F4800F087CDE9007653464A4641462046FFF76A
:108F5800B5FE0028DCD0039B013B0393D5E7D4F88A
:108F6800C434C4F8C434002BD5D013F0010F14BF97
:108F78004FF40240032048F2012213F0020F18BFF9
:108F8800104613F0040F48F2022318BF1846C3E72F
:108F9800A08601002DE9F04188B091F82C300193AA
:108FA8008B6A00930C464B6A01F134022E318046DD
:108FB800FFF784FEE0B994F82EC0276ABCF1000FD1
:108FC8001ED1217B8B1E012B1AD8626AA3699A4293
:108FD80016D1E26963696262C7F340170329A36285
:108FE80084F82C7007D1009741462046FFF7DEFE33
:108FF80008B0BDE8F08141462046FFF757FFF7E784
:1090080004F10C060FCE03AD0FC533682B60BCF11D
:10901800000F16D0D8F8C434C8F8C43499070CD552
:1090280001238DF80830002384F82F307B07DFD424
:10903800D4E9003102A89847DAE75A07F3D50223A2
:10904800EFE78DF808C0EEE701490248FFF7A2BF35
:10905800942800200030004002494FF04020FFF7DC
:1090680099BF00BFD02800202DE9F84F0479374D6B
:109078004FF03C0808FB04F805EB08079B4697F8F7
:109088002D3081460E469246002B5BD1304B00684E
:1090980053F82410FFF7F8F8002855D13168737B8E
:1090A80087F8383001F5E0724FF0A043B860C7F890
:1090B80004B087F82F0087F8300040F20C6745F8B5
:1090C80008A043F82270726802F5E07C43F82C701F
:1090D800D9F80030C3F80815C3F80C25B268C3F8EE
:1090E8002425BAF1000F25D01A0B53B2317B002B7F
:1090F800A8BF03F16046D2B24FEA5313B8BF02F0DB
:109108000F074FEA4111B4BF124E06F561464FEA08
:109118008303C9B203F16043B4BFF15586F8001365
:1091280003F5614302F01F02012101FA02F2C3F8BC
:1091380080211A603C2303FB0454012384F82D305A
:10914800BDE8F88F0820FBE71120F9E794280020F4
:1091580048BD020014ED00E0026803790521C2F859
:109168000015044A3C2101FB0323022283F82D2029
:10917800704700BF942800202DE9F74F2E4E90F835
:109188000480D0F800E02D4BCEF808333C2404FBD3
:1091980008648A4694F82F30154603F0FF0B33B164
:1091A800A368CEF80433112003B0BDE8F08F82F035
:1091B8000403C3F3800384F82F3022628C46BCE892
:1091C8000F0004F10C070FC7DCF800303B60DAF839
:1091D8000430A362DAF80C2062629AF80110CEF823
:1091E80088159AF80010C8EB0819012906EB8909B7
:1091F8001AD0B9B9C5F340153C2101FB08614846AE
:1092080081F82C5000957146FFF7D0FD3C2303FBF5
:1092180008F806EB080256F80830002BC4D182F88B
:109228002F30C1E70125E7E784F82CB0714648469E
:10923800FFF73CFEEAE700BF9428002086420400BE
:10924800F0B587B004460F4615460021142201A840
:109258001E4602F03DF99DF830308DF80570002B60
:1092680014BF2022002201A9204602960495FFF788
:1092780083FF07B0F0BD0000032812D8012A0BD1E4
:10928800012908D100F10E02D2B200EB40000C4BCC
:109298001A540020704700220129F6D009D3022968
:1092A80001D007207047064B00EB4000184442707D
:1092B800EFE7034B00EB400018448270E9E700BF7A
:1092C8000C29002008B5012202210020FFF7D4FF55
:1092D80008B1072810D1072202210120FFF7CCFF8F
:1092E80008B1072808D100210A220846FFF7C4FF61
:1092F80010B1072808BF002008BD00000388102B04
:1093080010B502D0112B1ED010BD1A4C2168B1B96E
:1093180001220846FFF7B0FF08B1072824D1072229
:1093280002210120FFF7A8FF08B107281CD1042259
:1093380002210020FFF7A0FF08B1072814D12368F5
:1093480001332360E0E70B4A1368013B1360002BED
:10935800DAD1FFF7B7FF0028D6D0074B1B68002BE0
:10936800D2D0BDE810401847034B1B68002BE6D04D
:109378009847E4E71C2900201829002075DF70476A
:1093880076DF70478ADF70478BDF70478CDF704766
:109398008FDF704708B5FFF7F7FF07490748FFF762
:1093A800F1FF08B1FDF70AFD0120FEF7ABFC002034
:1093B800BDE80840FEF79ABC60200020D8BD020036
:1093C80003881F2B13B5044660D02ED8112B3AD032
:1093D8001D2B45D0102B26D1324B33483349C01AA8
:1093E800C008000440F00300FDF760FB0022A188DC
:1093F8002F4801F02FF908B1FDF7E0FC0022A18801
:109408002C4801F033FC08B1FDF7D8FCA1882A48A4
:1094180000F09AFC08B1FDF7D1FC0120FEF766FCCC
:109428000020FEF76FFC02B010BD3B2B34D0562B4A
:1094380032D0212BF7D102A9002321F8043D8088DE
:10944800FFF7A6FF19E0174B17481C49C01AC008B8
:10945800000440F00300FDF729FBFFF79BFFE2E75C
:10946800818C174A006A00F015FA58B10123154A91
:10947800154904F10A00FFF789FF0028D3D0FDF74A
:109488009DFCD0E71149FFF77DFFF6E700F10801E1
:109498008088FFF773FFF0E71321A088FFF770FFBC
:1094A800EBE700BFE8B5020018B6020054BD0200A1
:1094B8002029002030290020921D00205FBD0200D5
:1094C800E6BD0200D0BD0200D8BD02006020002029
:1094D80010B501460446044800F0D0FF2146034871
:1094E800BDE8104001F0D6BA20290020302900201C
:1094F80070B5454B454CE41A2DED028BE408240465
:109508000D4644F0030484B0064641492046FDF761
:10951800CDFA2B78012B05D0022B19D004B0BDEC65
:10952800028B70BD2A1D69883A4801F09FFB2046CE
:109538006A883949FDF7BEFA304601F06BFB00280E
:10954800ECD004B0BDEC028BBDE87040FDF736BC32
:10955800B5F904609FED318AB5F9065007EE906AB7
:10956800F8EEE77A77EE887A17EE900A01F0E0FCD9
:1095780000222B4B01F030FD21A3D3E9002301F099
:10958800E1FD01F0F1FC07EE905AF8EEE77AB1EE52
:109598000C7A77EE887ADFED235A234B234967EE5E
:1095A800877A06EE900A87EEA56A37EE467AFCEED1
:1095B800C77ACDED037A9DF80C201A70FDEEE67A95
:1095C800023ACDED037A9DF80C300B70032A184A45
:1095D80013D8023B032B10D80323FCEEC67A137072
:1095E80017EE903AFCEEE67ACDE9006517EE902A80
:1095F80010492046FDF772FA90E70123EDE700BF16
:109608000000000000F89F40E8B5020018B602000C
:109618003EBE02003029002053BE020000C07F4435
:1096280000001E4000C0FF44682000206920002080
:10963800901D00208EBE020070B50D78012D0646E3
:109648000C4602D0022D1ED070BD0A1D194849884B
:1096580001F000F8184B194862881949C01AC00867
:10966800000440F00300FDF725FAFDF791FB08B16F
:10967800FDF7A4FB304600F0C1FF0028E4D0BDE8A8
:109688007040FDF79BBB0C4B0C480A790D49C01A7A
:10969800C008000440F00300FDF70CFA23792846BF
:1096A8001BB1BDE87040FEF721BBBDE87040FEF776
:1096B80029BB00BF20290020E8B5020018B6020027
:1096C80076BD0200A9BD02002DE9F0434FF4004128
:1096D80087B00020FDF724F808B1FDF76FFBFCF711
:1096E80057FFFDF77FFD08B1FDF768FB0120FEF786
:1096F80024FBFEF70FF908B1FDF760FB01F000F855
:1097080008B1FDF75BFB06AC002344F8183D0120C7
:10971800214601F07BF808B1FDF750FB204601F027
:1097280027F908B1FDF74AFB00213D4800F0ACFCE1
:1097380008B1FDF743FB3B4800F0CCFA08B1FDF750
:109748003DFB394B39480093214600F0EFFE08B144
:10975800FDF734FB364B37480093214601F0E6F914
:1097680008B1FDF72BFB344D344B3549ED1AED08A4
:109778002D0445F003052846FDF798F9FDF72AF86A
:109788000028FBD101F0D8FA2E492846FDF78EF9BA
:10979800FDF720F80028FBD17021204601F010FBCE
:1097A80029492846FDF782F9FDF714F801460028F3
:1097B800FAD12046254D01F0E5FA4FF47A7645F0C6
:1097C80001054FF47A70A847013EFAD1FFF7E2FD90
:1097D8003046FEF78BFA1E4FDFF87880DFF8789076
:1097E800FCF7F8FF0028FBD1FEF7AAF8204601F0A5
:1097F80019FB98F8002099F800103B7802F007024E
:1098080001F00701204601F017FB204601F06AFB32
:109818004FF4FA764FF47A70A847013EFAD1DFE7A1
:1098280040290020D99402004196020020290020F6
:10983800F99402003029002018B60200E8B50200A9
:10984800EDBD020014BE02002CBE020070BD020075
:10985800901D0020692000206820002070B5C0B14C
:109868004AB116880024B44203D305196D789D4285
:1098780008D0A14201D800200BE0055D01352C4439
:10988800A4B2F0E7A142F6D9A31C1380005D013809
:1098980080B270BDF7B500230746ADF80630144610
:1098A80012B9002003B0F0BD09230DF10602FFF73D
:1098B800D5FFBDF806500646002DF2D00028F0D09E
:1098C800204601F038FEB0420246EAD17919204616
:1098D80001F09FFDB0FA80F04009E3E773B501910C
:1098E800019C06466CB100252C46294601A8FDF7C7
:1098F800F6FC18B106EB440301349D800135142DA4
:10990800F3D13046346002B070BD00002DE9F04359
:1099180003888488112B8DB0064640D01A2B43D07B
:10992800102B16D1294DAB680CA8DB4340F8303D0D
:1099380055F8041FFDF7FCFC009901A8FFF7CEFFBE
:109948000027019B9F4207D3132C18D90420FDF749
:1099580035FA0DB0BDE8F08301AB03EB47034FF0D8
:109968000008B3F8049005EB0800494608F104081C
:10997800FDF7ABFCB8F1740FF5D10137E1E72146EB
:109988001348FDF799FC21461248FDF795FCF37B37
:10999800012BDED010482146FDF78EFCD9E70C4894
:1099A8002146FDF792FCD4E7057A0C482D09012DD4
:1099B800214606D9FDF780FC022D21460848F0D043
:1099C800EAE7FDF782FC21460548EAE7DC290020A2
:1099D800E4290020E0290020E8290020EC290020C3
:1099E800F02900209BDF70479DDF70479EDF70479E
:1099F80030B50C4B0C4A19680023994201D100205C
:109A08000CE002EB8304A5788478A54207D132F8EC
:109A180023500488A54202D1044B186830BD013395
:109A2800EBE700BF5C2A0020642D0020542A0020A8
:109A380070B590F8C63216467622A0B002FB030035
:109A48000D46FFF7D5FF044660B17C22002101A82E
:109A580001F03EFD01238DF80430ADF80660029553
:109A680001A8A04720B070BD2DE9F74F90F8C6B205
:109A78004FF0760A80460BFB0A00CDE90012FFF78B
:109A8800B7FF814648B3164F3D68052D25D8154CBC
:109A9800019AEE01A0190AFB0B814280524604305C
:109AA80001F0EDFC009B63B10023A355264401356A
:109AB800C6F87C900C4E3D60326895420DD1002569
:109AC80006E00223F1E704EBC5100135C36F9847A0
:109AD80033689D42F7D300233B6003B0BDE8F08FA5
:109AE800602D0020602A00205C2A002037B590F8FD
:109AF800C53290F8C6220C46BBB1013B7621DBB2D9
:109B08005143122505FB031303445B8A0133ADF867
:109B18000430762303FB020201A91389ADF806304D
:109B28002046FFF761FF03B030BD762303FB020335
:109B3800DB88ECE738B54FF433720D460021044654
:109B480001F0C6FC114AA4F8CA5200231360104A57
:109B580084F8C9321268226084F8C63284F8C532A3
:109B6800224601212846FFF73DFF112806D020B9DB
:109B7800012384F8C73284F8C80238BD012284F86A
:109B8800C72284F8C8221846F7E700BF602D0020D6
:109B9800642D002070B50C4690F8C922174901328F
:109BA8000968D2B28A42034680F8C9224FF00005FC
:109BB80021D290F8C61280F8C5520131C9B280F896
:109BC800C612762011FB00F00D4E1A1856F8211017
:109BD8001950012115712046FFF704FF014648B1CD
:109BE80083F8C75222461846FFF722FF054B032287
:109BF8001A705C8070BD80F8C752F7E75C2A0020B5
:109C0800642D0020602A00202DE9F74F90F8C64205
:109C180090F8C562762314FB03F700EB07084FF0B2
:109C2800120C98F804E01CFB0673741C0A33744584
:109C3800034419D006EBC6056D0044193C4405EBF6
:109C480007090EF1FF3A00271C3406EB070B5FFAF1
:109C58008BF5AE450DD9DA451D891CD1B8F8083009
:109C68009D422AD1002321E01B89B8F808008342CD
:109C780005D101230B70002003B0BDE8F08F01333C
:109C8800ADF80430ADF8060000230B70104601A9AA
:109C9800FFF7ACFEF0E70CFB07F309EB030B83447B
:109CA8000135BBF822B05D450DD1234490F8C5526B
:109CB800013580F8C5520137C7E70135ADF80450C2
:109CC800ADF80630E0E70BF1FF3BADF80450ADF816
:109CD80006B0D9E758B1074A00231360064A0121A4
:109CE8001170064A1360064A1060184670470E2025
:109CF800704700BF5C2A0020582A0020602D0020F1
:109D0800542A002010B5044680B10C4B1B787BB157
:109D1800FFF76EFE70B90A4A1368052B0CD809497B
:109D2800246841F823400133136010BD0E20FCE77E
:109D38000820FAE70020F8E70420F6E7582A002070
:109D48005C2A0020642D002050B1084A12784AB1DC
:109D5800074A126832B190F8C7322BB9FFF7EABE4A
:109D68000E2070470820704711207047582A00209D
:109D78005C2A00202DE9F7430C460546C8B1C1B15D
:109D8800994B1B78ABB10388302B35D014D8112BE5
:109D980000F0198194F8C8325BB12B88303B1F2B37
:109DA80007D8AB88B4F8CA12994202D12046FFF707
:109DB800C1FE03B0BDE8F083322B42D0332BE9D18A
:109DC8008288B1F8CA329342E4D1C68891F8C6C2F3
:109DD80091F8C572002E00F0BB80762101FB0C4C77
:109DE8007B1C9CF8041000268B428DF8076000F05D
:109DF800DF8084F8C532A2E08388B1F8CA229A428B
:109E0800C8D1C688A6B991F8C632C068762113FBB6
:109E180001F3E118E0502B69C1F8063020461146DD
:109E2800FFF764FE01460028B4D084F8C7624DE00D
:109E380000212046FFF718FEA9882046FFF7AAFE52
:109E4800A8E78288B1F8CA329A42A3D1C388002B06
:109E580071D191F8C692762319FB03F901EB090831
:109E6800837A98F804603344062B39DC88F8043088
:109E780009F10A09122313FB069305F10C07234481
:109E8800002298F80400864207F10A0703F112033A
:109E98003BD31223013E03FB064694F8C6327622D2
:109EA80002FB03434E441B8932899A4243D2062857
:109EB80041D0A98884F8C5022046FFF717FE01465D
:109EC80000283FF467AF002384F8C732AA882046E9
:109ED800FFF7AEFD454B03221A70AA885A8059E74E
:109EE800062388F80430424F424B31F80920424992
:109EF800FF1AFF083F0447F002073846FCF7DAFD6F
:109F08003E493846FCF7D2FDB2E73846013650F8EC
:109F18000ACD43F812CCD0F804C043F80ECC00891F
:109F280023F80A0C23F8082C23F8062C23F8042C11
:109F380023F8022CA5E7002684F8C562AA880DF14B
:109F480007012046FFF760FE0146002833D06CE782
:109F5800762303FB0CF1122303FB0713B0F80AE086
:109F680023447645BFF439AFC189A1F524510829A6
:109F780008D8DFE801F014170507070707071A00D4
:109F880081899982998A39B1D98A29B1198B19B1EC
:109F9800598B00297FF421AF01360630E1E781892A
:109FA800D982EFE781891983ECE781895983E9E749
:109FB80001238DF807309DF80730002B3FF4EAAEF7
:109FC800AA88012135E78288B1F8CA329A427FF41B
:109FD800E1AE002381F8C73281F8C8324FF6FF732B
:109FE800A1F8CA32D6E600BF582A0020602A00200D
:109FF80020B60200E8B50200A4BE0200EABE0200D4
:10A0080090DF7047A5DF7047B5DF70477FB5002345
:10A01800ADF80810ADF80A106A4602A9064603937F
:10A028000093ADF80430FFF7EBFF0546F8B1114B8C
:10A03800114CE41AE408FDF7E7FC240444F0010499
:10A04800034632460D492046FCF73EFDBDF8002088
:10A05800BDF8023002B91BB109492046FCF734FDAE
:10A06800BDF804201AB107492046FCF723FD28460D
:10A0780004B070BDE8B5020048B6020050BF020047
:10A088009ABF0200D9BF020080B14FF017130360D6
:10A098001B2303711723C380038141F61B3200235E
:10A0A80001618372C3728281184670470E2070471F
:10A0B80013B5034680880C46A0B91A88232A00F0F5
:10A0C800AE8011D8102A25D0112A54D0A37A4BB1CA
:10A0D800E1880020FFF796FF002840F0A6800123C2
:10A0E800A072E37202B010BD3A2A4DD0552A67D04B
:10A0F800242AEBD11A7A0B694A73002BE6D04DF665
:10A108007A21ADF80400ADF80010ADF802008DF822
:10A11800042080E0DB7B0A790A73012B13D0022B21
:10A1280014D0E18823898B4205D20020FFF76AFF0B
:10A1380070B90123E372217B637B8B42C6D2002076
:10A14800FFF764FFC2E70B88E380EAE74B88FBE789
:10A15800112802D10123A372EDE7FDF755FC3B4A14
:10A168003B4B3C499B1ADB081B04024643F00100A9
:10A17800FCF7A0FCDFE71723CB800B8141F61B33EC
:10A188008872C8728B81A1E75B89CA88934228BF0D
:10A198001346172B0A6938BF17230B8162B1C97A96
:10A1A80051B140F67721ADF80010ADF80200ADF8D6
:10A1B80004306946204690470023E372A37285E77E
:10A1C800DB88C988A072172B38BF17238B4228BF9A
:10A1D8000B462381FFF718FF60B1FDF715FC1B4AFA
:10A1E8001B4B1D499B1ADB081B04024643F0010068
:10A1F800FCF760FCE27A002A7FF468AF2369002B41
:10A208003FF464AF40F67721ADF802202289ADF81B
:10A218000010ADF8042069462046984756E7197A99
:10A22800237B994228BF19468AE711283FF45AAF81
:10A23800FDF7EAFB054A064B06499B1ADB081B0497
:10A24800024643F00100FCF735FC4BE7E8B5020095
:10A2580048B602002FC0020060C002008ADF7047C3
:10A268008BDF70478CDF704770B590F8233086B06D
:10A2780004460D46CBB190F82C60FFF7F1FF14228D
:10A28800002101A801F024F9334604F1240204F165
:10A298002E01A81CFFF7E6FF06238DF80430029074
:10A2A80018B1E36B0BB101A8984706B070BD90F8E0
:10A2B8002E00C0F3C00070472DE9F04F03881B2B18
:10A2C80089B007460C4600F1080500F0858005D8DE
:10A2D800102B00F0988009B0BDE8F08F1D2B17D027
:10A2E800202BF8D11422002103A801F0F1F8E26B29
:10A2F800002AF0D02868696805238DF80C3004AB73
:10A3080003C32E34297A0794197003A89047E2E70B
:10A318001422002103A801F0DBF804F12E032046E3
:10A328000793FFF7C4FF04F16009064678B10223DA
:10A338008DF80C3003A8E36B049598474946002034
:10A34800FFF78CFF29462046FFF78EFFC3E794F8F6
:10A35800213094F822A0A3B394F820B0BB8C804697
:10A368005FFA88F2934517D8002301220495BAF1C1
:10A37800000F29D09A422BD100238DF80C302946A2
:10A388002046FFF771FFE36B0BB103A898474946D6
:10A398000020FFF763FF9EE704EB48121946386A6E
:10A3A8000193FFF777FA08F10108019B0028D7D03D
:10A3B8009DF8143043F001038DF81430064601234C
:10A3C800D3E703460246D1E716B18DF80CA0D6E7CD
:10A3D80003238DF80C30D6E71422002103A801F0DE
:10A3E80077F83A7A012A7FF476AFE36B002B3FF4D3
:10A3F80072AF04212E348DF80C1007948DF81020BC
:10A4080003A8984767E71422002103A801F060F821
:10A4180007238DF80C30BB88ADF8143004F12E03F7
:10A428000793E36B0495002BEAD154E7A1DF70474B
:10A43800A3DF704762DF704770B50D4A0D4D126893
:10A448002B6893420ED00C4914245C430E19085B08
:10A45800B27842B9B188FFF7E9FF18B9013303F0C0
:10A4680007032B6070BD08342144FFF7E1FFF4E7D0
:10A47800202E00201C2E00207C2D00202DE9FF47D7
:10A488000B780246002B3CD18888B0F5407F38D144
:10A498008C79107B844234D101208DF8040091F826
:10A4A80008804888BDF80A50BDF80840BDF80C700F
:10A4B800ADF806001E469C46184640F2013940F2A7
:10A4C800023A804520D8BCF1000F01D0ADF80C70DD
:10A4D8000EB1ADF80A500BB1ADF8084011884FF62F
:10A4E800FF73994209D053683BB953882BB9029836
:10A4F800BDF80C30C2F80200D380936801A9104659
:10A50800984704B0BDE8F087B1F80EE0CE4504D016
:10A51800D64506D001301231D3E7CF8A4FF0010C6F
:10A52800F8E70123CD8A0C8B1E46F3E7F0B5174AEE
:10A5380087B002AC03460E4602F1100C274610689D
:10A548005168254603C5083262452C46F7D1D3B178
:10A55800CEB13268BAB14FF6FF700021C3E90001ED
:10A568009A6003F10C013846FFF764FF48B91B7B7A
:10A578008DF8063006A84FF4407320F8143DFFF715
:10A58800C1FB07B0F0BD0E20FBE700BFA5C002006D
:10A598001FB50B4641B338B30288382A26D0392A6A
:10A5A8000BD0112A20D181881A88914202BF4FF618
:10A5B800FF710022C3E9001216E0098882888A42E6
:10A5C80012D1448999888C420ED1C18901290BD1B5
:10A5D8000221ADF80620028A8DF804108DF80820B3
:10A5E80001A99A681846904704B010BD0A88838864
:10A5F8009A42F9D1FFF720FFF6E7000038B508B313
:10A6080005884FF6FF739D421ED0104A4488116892
:10A618000F484B1C03F00703136014224A438318A6
:10A628000221D981111D01445C8119610024012195
:10A6380085529C81197219715C719970FFF7FCFE43
:10A64800204638BD0E20FCE70820FAE7202E00201F
:10A658007C2D002040B1018022B11368C0F802307F
:10A668009388C380002070470E20704710DF704722
:10A6780013B5044609496846FDF791F9019808B9E8
:10A6880002B010BDD0E900312046984718B168469D
:10A69800FDF78FF9F2E71120F2E700BFC4C002000E
:10A6A80013B5044607496846FDF779F9019B0BB9CC
:10A6B80002B010BD2046D3E9002190476846FDF757
:10A6C80078F9F3E7DCC002000B4991F816335A0910
:10A6D800EC231341DB0706D5084B9A683AB94FF4C7
:10A6E80080030B60704742F20200FCF767BB1A68F0
:10A6F80042F480021A60704700E100E08C270020D5
:10A70800F7B5184F3C785CBB174E012520463570CD
:10A71800FFF7AEFF112820D02046FFF7C1FF134BEB
:10A728001868019002A800F8054DFCF78BFD104948
:10A7380001A8FFF79BFF0446B0FA80F04009387083
:10A748009DF80300FCF7A2FD3CB90A4B34701C705D
:10A75800FFF7BAFF2846FFF7A3FF204603B0F0BD76
:10A768000824FAE7252E0020242E0020BFC002006E
:10A77800E16D0200262E0020014B1878704700BFBB
:10A78800252E002007B508496846FDF708F9019B02
:10A7980013B903B05DF804FBD3E90020904768467D
:10A7A800FDF707F9F3E700BFD0C00200FFF7EABFE3
:10A7B80060DF704769DF704761DF704730B5114B64
:10A7C8001B7891B0E3B1104D34240DF1020103A8B8
:10A7D800ADF80240FFF7F0FF70B9294601A8FDF770
:10A7E800DEF8029B002BF0D003A8D3E900219047A4
:10A7F80001A8FDF7DEF8F4E7052801D0FCF7DEFA3A
:10A8080011B030BD272E00201CC3020030B505460C
:10A8180085B00C46002900F098804D4B0B600C2247
:10A82800002101A800F054FE01238DF806302268AB
:10A838008DF80450062301A92020ADF80830FFF751
:10A84800B9FF60B1FDF7E0F8424A434B43499B1A10
:10A85800DB081B04024643F00100FCF72BF90C222D
:10A86800002101A800F034FE00238DF8053022688D
:10A87800012301A940208DF806308DF80730FFF735
:10A8880099FF60B1FDF7C0F8324A334B34499B1A3F
:10A89800DB081B04024643F00100FCF70BF90C220D
:10A8A800002101A800F014FE0A2322688DF8043064
:10A8B80001A90120FFF77EFF60B1FDF7A5F8254A41
:10A8C800254B28499B1ADB081B04024643F001006C
:10A8D800FCF7F0F80C22002101A800F0F9FDF8239C
:10A8E8002268019301A9A120FFF764FF60B1FDF779
:10A8F8008BF8184A184B1C499B1ADB081B040246A4
:10A9080043F00100FCF7D6F80C22002101A800F062
:10A91800DFFD9DF8043022686FF3000301A9A02031
:10A928008DF80430FFF746FF68B1FDF76DF8094A66
:10A93800094B0E499B1ADB081B04024643F0010031
:10A94800FCF7B8F8002005B030BD0E20FBE700BFCB
:10A95800701D0020E8B5020058B60200F0C00200E1
:10A9680036C1020082C10200CEC102001FC202002D
:10A97800F8B506460768FFF71BFF3368BB42054674
:10A988001DD9194B194C1A49E41AE408240444F057
:10A9980002042046FCF78AF8336816493A462046EE
:10A9A800FCF792F84FF080533268D3F80C31124913
:10A9B8009B0203F100539A1A2046FCF77BF825B94D
:10A9C8000E4B01221A702846F8BD2846FDF71CF8E0
:10A9D800054A064B0A499B1ADB081B04024643F04A
:10A9E8000100FCF767F8EEE7E8B5020058B6020088
:10A9F80072C20200A1C20200D2C20200272E0020A9
:10AA0800FCC202004BDF70471FB50D4C01A8FFF7D1
:10AA1800F9FF70B9214602A8FCF7C1FF039B002B80
:10AA2800F4D00198D3E90021904702A8FCF7C1FFB0
:10AA3800F4E7052801D0FCF7C1F904B010BD00BF48
:10AA480034C30200A1DF7047A3DF704762DF70479D
:10AA580070B50D4A0D4D12682B6893420ED00C4903
:10AA680014245C430E19085BB27842B9B188FFF729
:10AA7800E9FF18B9013303F007032B6070BD0834F0
:10AA88002144FFF7E1FFF4E7CC2E0020C82E002078
:10AA9800282E00202DE9F0431F4B204DED1AED081C
:10AAA8002D040C4645F0030587B006461C49284688
:10AAB800FBF7FCFF23785BBBA388B3F5806F27D136
:10AAC800A279337B9A4223D101238DF800301549AE
:10AAD8006388ADF802302846FBF7E8FFDFF84890B6
:10AAE80004F1900740F20648E389434509D1238BD6
:10AAF800E28AADF8063049462846ADF80420FBF74F
:10AB0800D9FF1234BC42EFD1B36869463046984742
:10AB180007B0BDE8F08300BFE8B5020038B6020010
:10AB28005CC3020074C30200AFC30200F0B5174A49
:10AB380087B002AC03460E4602F1100C2746106897
:10AB48005168254603C5083262452C46F7D1D3B172
:10AB5800CEB13268BAB14FF6FF7119600021998001
:10AB68009A6003F10C013846FFF770FF48B91B7B68
:10AB78008DF8063006A84FF4806320F8143DFFF7DF
:10AB8800C1F807B0F0BD0E20FBE700BF4CC30200C0
:10AB980070B50A4686B0002932D0002830D0038824
:10ABA800382B2FD0392B0BD0112B29D11388818822
:10ABB800994201BF4FF6FF731360002393801FE093
:10ABC800098883888B421BD1ADF8023041895388AC
:10ABD800994215D102238DF8003001AC00F1100321
:10ABE80000F1200618685968254603C50833B342A2
:10ABF8002C46F7D11B882B806946936810469847E6
:10AC080006B070BD0A8883889A42F9D1FFF720FF01
:10AC1800F6E7000038B508B305884FF6FF739D4284
:10AC28001ED0104A848811680F484B1C03F0070394
:10AC3800136014224A4383180221D981111D01444B
:10AC48005C8119610024012185529C811972197156
:10AC58005C719970FFF7FCFE204638BD0E20FCE7BA
:10AC68000820FAE7CC2E0020282E002030B10180E1
:10AC780012B11368C0F80230002070470E207047E8
:10AC88000378012B07D002D3022B10D070470C4B4E
:10AC980001221A7070470B4B0B480C49C01A0C4B19
:10ACA800C0081A78000440F00300FBF703BF054B07
:10ACB80005480849C01A064BC00800041A78F2E78C
:10ACC800D12E0020E8B5020018B60200E6C3020043
:10ACD800D02E002008C4020038B5054D044645F0C2
:10ACE80001054FF47A70A847013CFAD138BD00BF7E
:10ACF800E0C302001FB51B211A22CDE900124FF054
:10AD0800CC72002302920222039369468DF80C202C
:10AD18000648074AFDF75AFF08B1FCF74FF80548FF
:10AD2800FEF71AFA05B05DF804FB00BF6C2000209E
:10AD380089AC02007020002008B5FFF7DBFF642013
:10AD4800BDE80840FFF7C8BFF0B50F2985B028BF98
:10AD58000F2104AC61F01F0104F8011D084D0746DE
:10AD68000026397C0096012322462846FEF768FA19
:10AD78001128F6D00120FFF7AFFF05B0F0BD00BFE6
:10AD880070200020F0B5032988BF002185B0490054
:10AD980004AC61F07E0104F8011D084D0746002649
:10ADA800397C0096012322462846FEF749FA1128E5
:10ADB800F6D00120FFF790FF05B0F0BD702000200D
:10ADC8002DE9FF4104AE04462122002306F8012D97
:10ADD800DFF84C8021740F464374438283820380DA
:10ADE80043808380C380038143818381C3811D465F
:10ADF80000950123324639464046FEF721FA1128CC
:10AE0800F6D00A20FFF768FF20460021FFF7BAFFB7
:10AE180007212046FFF798FF04B0BDE8F08100BF86
:10AE2800702000200023038043808380C380038137
:10AE380043818381C381704770B595B2072D1CD8B3
:10AE48008CB2072C19D8467C022E17D0032E1CD0A2
:10AE5800012E03D1C5F107050A4629B2032B19D1E2
:10AE6800012530F8123005FA01F408311C4305FABF
:10AE780001F124EA010120F8121070BDC4F10701A4
:10AE8800C5F1070209B212B2E8E7C4F10704114696
:10AE980022B2E3E7012B09D101F1080430F812507E
:10AEA80003FA04F42C4303FA01F1E2E7022B0AD176
:10AEB800012530F8123005FA01F408311C4305FA6F
:10AEC80001F12143D7E7002BD7D1012301F1080471
:10AED80003FA04F403FA01F130F81230214323EAAB
:10AEE8000101C8E770B588B004461122002103A803
:10AEF80000F0EEFA002303A9E25A194402334A701B
:10AF0800102B4FEA12228A70F5D1084D0026217CB9
:10AF18000096112303AA2846FEF792F91128F6D0C5
:10AF28000120FFF7D9FE08B070BD00BF70200020D7
:10AF3800C0F3C751094208BF00F0004042004FEA81
:10AF480040704FEA121118BF01F1605128BF81F01B
:10AF580000414FF08073D34238BF704701F1605110
:10AF680018BF41F4002170474FF4001313EB410F51
:10AF780024D24FEA4102B2F1E04324BFB3F5001CEA
:10AF8800DCF1FE5C0DD901F000414FEAC00241EA54
:10AF98005070B2F1004F40EB830008BF20F0010071
:10AFA800704711F0804F04BF01F00040704701F076
:10AFB800004040F0FE4040F40000704701D10042DC
:10AFC800F5D049004FEAC10141EA10704FEA30005C
:10AFD80040F4800070470000F0B5574F81EA030540
:10AFE80017EA010E1EBF9EEA070F17EA030494EA48
:10AFF800070F64D04EEAD57EA64421EA470141F402
:10B00800801123EA470343F48013A1FB0247A0FB06
:10B01800036536197D41A1FB034747F10003A0FBF7
:10B028000217F619654153F10003094218BF46F0AB
:10B0380001061427B3F5007F47F1000734BF3F4AE4
:10B048003F4ABEEB020E31D4C7F1200403FA04F1E3
:10B0580005FA04F025FA07F2114326FA07F210431D
:10B0680016FA04F421F480114FEA5E0741EA470119
:10B078000AD0B4F1004F50F1000041F10001B4F1E1
:10B08800004F08BF20F001002B4F1EEA070F10D019
:10B0980041EACE71BE453CBFBDE8F0407047264945
:10B0A800002041EACE71BDE8F04070471EEB020E69
:10B0B800F5D44FEACE710020BDE8F0407047394220
:10B0C80004BF01F000410020004218BF41F0010117
:10B0D8003B4204BF03F000430022124218BF43F072
:10B0E800010307EA0304BC4218BF9EEA070F05D014
:10B0F80005F000410020BDE8F040704721F0004114
:10B1080023F00043B9420FD8BB420DD8002918BF1D
:10B11800002B09D005F0004141F0FE4141F47001D7
:10B128000020BDE8F04070474FF0FE4141F478013F
:10B138000020BDE8F04070470000F07F0000F03FBD
:10B148000000E03FF0B581EA030E0EF0004E814F9B
:10B1580017EA41051EBF95EA070F17EA430494EA68
:10B16800070F00F0C5806D0DA5EB545707F58067F4
:10B178004FF0004646EAC12444EA5054C00246EA69
:10B18800C32343EA5253D202801A9C4104D20018C6
:10B19800644180185C41013F5B084FEA3202002598
:10B1A800002140F001004FF0070604E0801A9C419E
:10B1B80036D340416441801A9C4136D340416441B2
:10B1C800801A9C4136D340416441801A9C4136D351
:10B1D80040416441801A9C4136D340416441013E5C
:10B1E80017D0801A9C4136D340416441801A9C4153
:10B1F80036D340416441801A9C4136D34041644172
:10B20800090201EB15612D02454020F0FF00454081
:10B21800CCE7801A9C4156D335E080185C41C8D2EF
:10B228000018644180185C41C8D200186441801835
:10B238005C41C8D20018644180185C41C8D200182B
:10B24800644180185C41C8D200186441013E17D09F
:10B2580080185C41C8D20018644180185C41C8D28B
:10B268000018644180185C41C8D200186441090282
:10B2780001EB15612D02454020F0FF004540CCE769
:10B2880080185C411FD3420918BF44F001044901EA
:10B2980001EBD56100F01F0000EB451021F480118F
:10B2A80041EA0E01013041F10001244208BF20F0BB
:10B2B8000100B7F5006F3EDA013F49DD01EB0751A8
:10B2C800BDE8F0407047490101EBD56100F01F006F
:10B2D80000EB451021F4801141EA0E01B7F5006F2B
:10B2E80029DA013F34DD01EB0751BDE8F040704732
:10B2F800004218BF41F00101124218BF43F0010398
:10B30800B7EB410F2CBFB7EB430F1CE0B7EB410F76
:10B3180004BFB7EB430F16E017EA410F04BF17EA63
:10B32800430F10E017EA410F12D017EA430F02D07B
:10B33800B7EB430F0CD04EF0FE4141F470010020F2
:10B34800BDE8F04070474FF0FE4141F47801F6E760
:10B358007146F4E70000E0FF7F2805D8034B185C2E
:10B36800034B5B5C184070470020704728C40200FC
:10B37800A8C40200A0F16103192B98BF20387047B8
:10B38800A0F14103192B98BF203070477F2805D8BA
:10B39800034B185C034B5B5C1840704700207047F8
:10B3A80028C40200A8C40200A0F16103192B98BFA9
:10B3B80020387047A0F14103192B98BF20307047FF
:10B3C8007F299ABF017001206FF02E0070475AB193
:10B3D8000A787F2A0AD800B10260002119605960F2
:10B3E800501A18BF01207047002070476FF02E00D8
:10B3F8007047000008B5034B5B689B681B6898475B
:10B4080008BD00BF7C20002008B50921FFF7F2FF26
:10B4180008BD92B370B4134640EA010212F0030F5C
:10B4280017D05A1E10D004780B789C420CD1431CBC
:10B438004C1C024418462146934205D0013301347E
:10B4480006780D78AE42F5D000780B78C01A70BC3B
:10B4580070470F2BE5D904680A689442E1D1041DAE
:10B468000A1D20461146043B042BDAD90434043261
:10B4780006680D68AE42F4D0D3E7002070478446D2
:10B4880040EA010313F0030F18D18446202A0BD396
:10B498002DE9F007B1E8F807A0E8F807A2F12002C3
:10B4A800202AF7D2BDE8F007042A07D351F8043B55
:10B4B80040F8043BA2F10402042AF7D2002A05D07E
:10B4C80011F8013B00F8013B013AF9D16046704799
:10B4D8008446002A2DD010F0030F04D000F8011B79
:10B4E800013A26D0F7E7C9B241EA012141EA014110
:10B4F800202A12D3A2F120022DE9F0030B460C46B4
:10B508000D460E460F4688468946A0E8FA03203ABB
:10B51800FBD2BDE8F00320320BD0042A05D340F853
:10B52800041B043A05D0042AF9D200F8011B013A99
:10B53800FBD16046704700F1010110F0030F11D0F4
:10B5480010F8012B002A23D010F0030F0AD010F8AE
:10B55800012B002A1CD010F0030F03D010F8012B88
:10B56800002A15D02DE970004FF001324FF08033DA
:10B5780050F8044BA4EB020525EA04051D4000D150
:10B58800F6E7A0F1040070BC10F8012B002AFBD1EB
:06B59800A0EB010070476A
:08B5A000C57D0200000000005F
:10B5A8001599020000000000059302000000000049
:10B5B8007D9D0200921D0020B9A0020040290020B4
:10B5C800C1A202005429002099A5020020290020C8
:10B5D80099AB020030290020C99302000000000046
:10B5E8001CBD02000000000022BD02000000000097
:10B5F80029BD02000000000050BD0200000000004C
:10B608002DBD02000000000032BD02000000000055
:10B6180009B702000000030344BF0200000003034F
:10B62800B5C00200000003039CC002000000030331
:10B63800CCC302000000030316BD02000000000096
:10B648008FC0020000000303E8C0020000000303EB
:10B6580028C302000000030340C3020000000303E4
:08B6680014B80200000000000C
:10B67000D42000209C210020A4210020DC200020D8
:04B6800018000000AE
:10B68400C5A702000000000011AA0200000000008B
:08B69400417E020000000000ED
:10B69C00CCB6020000000000D8B60200841D0020C9
:10B6AC00FFFFFFFFFFFFFFFFFFFFFFFFFFFFFFFF9E
:10B6BC0000000000000000000000D60106010000A0
:10B6CC000165020065650200B16402007561727467
:10B6DC005F6C6F675F6261636B656E640000000096
:10B6EC00C82500207F000000482600204261636BC3
:10B6FC00656E647320666C75736865640061707048
:10B70C000000000043B702008CB702004BB70200E8
:10B71C0094B702009CB70200A4B70200ACB70200B9
:10B72C00B4B70200BCB702002025303278002020CC
:10B73C0020007C002563001B5B306D002573001B13
:10B74C005B313B33316D0025734C6F677320647232
:10B75C006F70706564202825642925730D0A003CE0
:10B76C0025733E2025733A200000000000000000E5
:10B77C00DDB70200C4B70200CCB70200D1B702009B
:10B78C001B5B313B33306D001B5B313B33326D0047
:10B79C001B5B313B33336D001B5B313B33346D0032
:10B7AC001B5B313B33356D001B5B313B33366D001E
:10B7BC001B5B313B33376D007761726E696E6700CE
:10B7CC00696E666F00646562756700466174616CD2
:10B7DC00206572726F720053797374656D20726597
:10B7EC00736574000338FDD870473031323334350B
:10B7FC00363738394142434445460000E8B502002B
:10B80C00E8B50200040000007077725F6D676D741C
:10B81C0000556E6B6E6F776E206572726F7220635F
:10B82C006F6465000000000058B9020001000000C0
:10B83C0064B902000200000082B90200030000009B
:10B84C00A3B9020004000000B6B902000500000014
:10B85C00C7B9020006000000DBB9020007000000B7
:10B86C00F3B90200080000000BBA02000900000046
:10B87C0023BA02000A0000003CBA02000B000000D0
:10B88C0054BA02000C0000006BBA02000D0000005C
:10B89C007FBA02000E00000091BA02000F000000F7
:10B8AC00A0BA020010000000B4BA0200110000009F
:10B8BC00CBBA020012000000DABA0200130000003A
:10B8CC00EFBA02008000000003BB02008100000000
:10B8DC0024BB02008200000040BB02008300000079
:10B8EC005CBB0200840000007ABB020085000000F3
:10B8FC009BBB020086000000C0BB02009000000051
:10B90C00D7BB020091000000F5BB020092000000C2
:10B91C0013BC02000082000028BC0200018200005F
:10B92C0046BC02000282000062BC020000840000DF
:10B93C007EBC020001840000A2BC02000284000054
:10B94C00CCBC020003840000F1BC02004E52465FE6
:10B95C0053554343455353004E52465F4552524F45
:10B96C00525F5356435F48414E444C45525F4D49DC
:10B97C005353494E47004E52465F4552524F525F09
:10B98C00534F46544445564943455F4E4F545F45CB
:10B99C004E41424C4544004E52465F4552524F5226
:10B9AC005F494E5445524E414C004E52465F4552F3
:10B9BC00524F525F4E4F5F4D454D004E52465F45C4
:10B9CC0052524F525F4E4F545F464F554E44004EAD
:10B9DC0052465F4552524F525F4E4F545F53555033
:10B9EC00504F52544544004E52465F4552524F52AE
:10B9FC005F494E56414C49445F504152414D004EB7
:10BA0C0052465F4552524F525F494E56414C494443
:10BA1C005F5354415445004E52465F4552524F526B
:10BA2C005F494E56414C49445F4C454E4754480083
:10BA3C004E52465F4552524F525F494E56414C4909
:10BA4C00445F464C414753004E52465F4552524F5D
:10BA5C00525F494E56414C49445F44415441004E5B
:10BA6C0052465F4552524F525F444154415F5349D5
:10BA7C005A45004E52465F4552524F525F54494D03
:10BA8C00454F5554004E52465F4552524F525F4EF1
:10BA9C00554C4C004E52465F4552524F525F464FEA
:10BAAC005242494444454E004E52465F4552524F15
:10BABC00525F494E56414C49445F41444452004EFA
